10779106209WALMART CHILE COMERCIAL  s&a  779106209824050401140100002086050401140100002086                    20140814COMERCIAL DYS                                                                                                                              
2003546798K                    YOLANDA DUMONT RODRIGUEZ evr  01612296228            11ANTONIA LOPEZ DE BELLO 172    SANTIAGO       0003546798                         0000                                                                                      
312014071875544          PAGO DOCTO 75544    000000000689332                                                                                                                                                                                                    
312014032074806          PAGO DOCTO 74806    000000000441580                                                                                                                                                                                                    
400002000000000001130912                                                                                                                                                                                                                                        
50001000000000001130912                                                                                                                                                                                                                                         
