10779106209WALMART CHILE COMERCIAL  s&a  77910620982405040114010000208605040114010000208620140814            20140814COMERCIAL DYS                                                                                                                              
2003546798K                    YOLANDA DUMONT RODRIGUEZ tes  01612296228             1ANTONIA LOPEZ DE BELLO 172    SANTIAGO       0003546798                         0000                                                                                      
312014071875544          PAGO DOCTO 75544    000000000689332                                                                                                                                                                                                    
312014032074806          PAGO DOCTO 74806    000000000441580                                                                                                                                                                                                    
400002000000000001130912                                                                                                                                                                                                                                        
50001000000000001130912                                                                                                                                                                                                                                         
