10779106209WALMART CHILE COMERCIAL  s&a  77910620982405040114010000208605040114010000208620140814            20140814COMERCIAL DYS                                                                                                                              
2003546798K                    YOLANDA DUMONT RODRIGUEZ evr  01612296228            11ANTONIA LOPEZ DE BELLO 172    SANTIAGO       0003546798                         0000                                                                                      
312014071875544          PAGO DOCTO 75544    000000000000001                                                                                                                                                                                                    
312014071875544          PAGO DOCTO 75544    000000000000001                                                                                                                                                                                                    
312014071875544          PAGO DOCTO 75544    000000000000001                                                                                                                                                                                                    
312014071875544          PAGO DOCTO 75544    000000000000001                                                                                                                                                                                                    
312014071875544          PAGO DOCTO 75544    000000000000001                                                                                                                                                                                                    
312014071875544          PAGO DOCTO 75544    000000000000001                                                                                                                                                                                                    
312014071875544          PAGO DOCTO 75544    000000000000001                                                                                                                                                                                                    
312014071875544          PAGO DOCTO 75544    000000000000001                                                                                                                                                                                                    
312014071875544          PAGO DOCTO 75544    000000000000001                                                                                                                                                                                                    
312014071875544          PAGO DOCTO 75544    000000000000001                                                                                                                                                                                                    
312014071875544          PAGO DOCTO 75544    000000000000001                                                                                                                                                                                                    
312014071875544          PAGO DOCTO 75544    000000000000001                                                                                                                                                                                                    
312014071875544          PAGO DOCTO 75544    000000000000001                                                                                                                                                                                                    
312014071875544          PAGO DOCTO 75544    000000000000001                                                                                                                                                                                                    
312014071875544          PAGO DOCTO 75544    000000000000001                                                                                                                                                                                                    
312014071875544          PAGO DOCTO 75544    000000000000001                                                                                                                                                                                                    
312014071875544          PAGO DOCTO 75544    000000000000001                                                                                                                                                                                                    
312014071875544          PAGO DOCTO 75544    000000000000001                                                                                                                                                                                                    
312014071875544          PAGO DOCTO 75544    000000000000001                                                                                                                                                                                                    
312014071875544          PAGO DOCTO 75544    000000000000001                                                                                                                                                                                                    
312014071875544          PAGO DOCTO 75544    000000000000001                                                                                                                                                                                                    
312014071875544          PAGO DOCTO 75544    000000000000001                                                                                                                                                                                                    
312014071875544          PAGO DOCTO 75544    000000000000001                                                                                                                                                                                                    
312014071875544          PAGO DOCTO 75544    000000000000001                                                                                                                                                                                                    
312014071875544          PAGO DOCTO 75544    000000000000001                                                                                                                                                                                                    
312014071875544          PAGO DOCTO 75544    000000000000001                                                                                                                                                                                                    
312014071875544          PAGO DOCTO 75544    000000000000001                                                                                                                                                                                                    
312014071875544          PAGO DOCTO 75544    000000000000001                                                                                                                                                                                                    
312014071875544          PAGO DOCTO 75544    000000000000001                                                                                                                                                                                                    
312014071875544          PAGO DOCTO 75544    000000000000001                                                                                                                                                                                                    
312014071875544          PAGO DOCTO 75544    000000000000001                                                                                                                                                                                                    
312014071875544          PAGO DOCTO 75544    000000000000001                                                                                                                                                                                                    
312014071875544          PAGO DOCTO 75544    000000000000001                                                                                                                                                                                                    
312014071875544          PAGO DOCTO 75544    000000000000001                                                                                                                                                                                                    
312014071875544          PAGO DOCTO 75544    000000000000001                                                                                                                                                                                                    
312014071875544          PAGO DOCTO 75544    000000000000001                                                                                                                                                                                                    
312014071875544          PAGO DOCTO 75544    000000000000001                                                                                                                                                                                                    
312014071875544          PAGO DOCTO 75544    000000000000001                                                                                                                                                                                                    
312014071875544          PAGO DOCTO 75544    000000000000001                                                                                                                                                                                                    
312014071875544          PAGO DOCTO 75544    000000000000001                                                                                                                                                                                                    
312014071875544          PAGO DOCTO 75544    000000000000001                                                                                                                                                                                                    
312014071875544          PAGO DOCTO 75544    000000000000001                                                                                                                                                                                                    
312014071875544          PAGO DOCTO 75544    000000000000001                                                                                                                                                                                                    
312014071875544          PAGO DOCTO 75544    000000000000001                                                                                                                                                                                                    
312014071875544          PAGO DOCTO 75544    000000000000001                                                                                                                                                                                                    
312014071875544          PAGO DOCTO 75544    000000000000001                                                                                                                                                                                                    
312014071875544          PAGO DOCTO 75544    000000000000001                                                                                                                                                                                                    
312014071875544          PAGO DOCTO 75544    000000000000001                                                                                                                                                                                                    
312014071875544          PAGO DOCTO 75544    000000000000001                                                                                                                                                                                                    
312014071875544          PAGO DOCTO 75544    000000000000001                                                                                                                                                                                                    
312014071875544          PAGO DOCTO 75544    000000000000001                                                                                                                                                                                                    
312014071875544          PAGO DOCTO 75544    000000000000001                                                                                                                                                                                                    
312014071875544          PAGO DOCTO 75544    000000000000001                                                                                                                                                                                                    
312014071875544          PAGO DOCTO 75544    000000000000001                                                                                                                                                                                                    
400054000000000000000054                                                                                                                                                                                                                                        
50054000000000000000054                                                                                                                                                                                                                                         
